{
  "contractName": "ERC721Minter",
  "abi": [
    {
      "inputs": [
        {
          "internalType": "string",
          "name": "_name",
          "type": "string"
        },
        {
          "internalType": "string",
          "name": "_symbol",
          "type": "string"
        },
        {
          "internalType": "uint256",
          "name": "_priceWei",
          "type": "uint256"
        },
        {
          "internalType": "uint256",
          "name": "_startTime",
          "type": "uint256"
        }
      ],
      "stateMutability": "nonpayable",
      "type": "constructor"
    },
    {
      "inputs": [],
      "name": "Empty",
      "type": "error"
    },
    {
      "inputs": [],
      "name": "TooEarly",
      "type": "error"
    },
    {
      "inputs": [],
      "name": "TooLate",
      "type": "error"
    },
    {
      "inputs": [],
      "name": "Unauthorized",
      "type": "error"
    },
    {
      "anonymous": false,
      "inputs": [
        {
          "indexed": true,
          "internalType": "address",
          "name": "owner",
          "type": "address"
        },
        {
          "indexed": true,
          "internalType": "address",
          "name": "approved",
          "type": "address"
        },
        {
          "indexed": true,
          "internalType": "uint256",
          "name": "tokenId",
          "type": "uint256"
        }
      ],
      "name": "Approval",
      "type": "event"
    },
    {
      "anonymous": false,
      "inputs": [
        {
          "indexed": true,
          "internalType": "address",
          "name": "owner",
          "type": "address"
        },
        {
          "indexed": true,
          "internalType": "address",
          "name": "operator",
          "type": "address"
        },
        {
          "indexed": false,
          "internalType": "bool",
          "name": "approved",
          "type": "bool"
        }
      ],
      "name": "ApprovalForAll",
      "type": "event"
    },
    {
      "anonymous": false,
      "inputs": [
        {
          "indexed": false,
          "internalType": "uint256",
          "name": "tokenId",
          "type": "uint256"
        },
        {
          "indexed": false,
          "internalType": "string",
          "name": "url",
          "type": "string"
        },
        {
          "indexed": true,
          "internalType": "address",
          "name": "sender",
          "type": "address"
        }
      ],
      "name": "Mint",
      "type": "event"
    },
    {
      "anonymous": false,
      "inputs": [
        {
          "indexed": true,
          "internalType": "address",
          "name": "previousOwner",
          "type": "address"
        },
        {
          "indexed": true,
          "internalType": "address",
          "name": "newOwner",
          "type": "address"
        }
      ],
      "name": "OwnershipTransferred",
      "type": "event"
    },
    {
      "anonymous": false,
      "inputs": [
        {
          "indexed": true,
          "internalType": "address",
          "name": "from",
          "type": "address"
        },
        {
          "indexed": true,
          "internalType": "address",
          "name": "to",
          "type": "address"
        },
        {
          "indexed": true,
          "internalType": "uint256",
          "name": "tokenId",
          "type": "uint256"
        }
      ],
      "name": "Transfer",
      "type": "event"
    },
    {
      "inputs": [
        {
          "internalType": "address",
          "name": "to",
          "type": "address"
        },
        {
          "internalType": "uint256",
          "name": "tokenId",
          "type": "uint256"
        }
      ],
      "name": "approve",
      "outputs": [],
      "stateMutability": "nonpayable",
      "type": "function"
    },
    {
      "inputs": [
        {
          "internalType": "address",
          "name": "owner",
          "type": "address"
        }
      ],
      "name": "balanceOf",
      "outputs": [
        {
          "internalType": "uint256",
          "name": "",
          "type": "uint256"
        }
      ],
      "stateMutability": "view",
      "type": "function"
    },
    {
      "inputs": [
        {
          "internalType": "uint256",
          "name": "",
          "type": "uint256"
        }
      ],
      "name": "candidates",
      "outputs": [
        {
          "internalType": "string",
          "name": "",
          "type": "string"
        }
      ],
      "stateMutability": "view",
      "type": "function"
    },
    {
      "inputs": [
        {
          "internalType": "uint256",
          "name": "tokenId",
          "type": "uint256"
        }
      ],
      "name": "getApproved",
      "outputs": [
        {
          "internalType": "address",
          "name": "",
          "type": "address"
        }
      ],
      "stateMutability": "view",
      "type": "function"
    },
    {
      "inputs": [
        {
          "internalType": "address",
          "name": "owner",
          "type": "address"
        },
        {
          "internalType": "address",
          "name": "operator",
          "type": "address"
        }
      ],
      "name": "isApprovedForAll",
      "outputs": [
        {
          "internalType": "bool",
          "name": "",
          "type": "bool"
        }
      ],
      "stateMutability": "view",
      "type": "function"
    },
    {
      "inputs": [],
      "name": "name",
      "outputs": [
        {
          "internalType": "string",
          "name": "",
          "type": "string"
        }
      ],
      "stateMutability": "view",
      "type": "function"
    },
    {
      "inputs": [],
      "name": "owner",
      "outputs": [
        {
          "internalType": "address",
          "name": "",
          "type": "address"
        }
      ],
      "stateMutability": "view",
      "type": "function"
    },
    {
      "inputs": [
        {
          "internalType": "uint256",
          "name": "tokenId",
          "type": "uint256"
        }
      ],
      "name": "ownerOf",
      "outputs": [
        {
          "internalType": "address",
          "name": "",
          "type": "address"
        }
      ],
      "stateMutability": "view",
      "type": "function"
    },
    {
      "inputs": [],
      "name": "priceWei",
      "outputs": [
        {
          "internalType": "uint256",
          "name": "",
          "type": "uint256"
        }
      ],
      "stateMutability": "view",
      "type": "function"
    },
    {
      "inputs": [],
      "name": "renounceOwnership",
      "outputs": [],
      "stateMutability": "nonpayable",
      "type": "function"
    },
    {
      "inputs": [
        {
          "internalType": "address",
          "name": "from",
          "type": "address"
        },
        {
          "internalType": "address",
          "name": "to",
          "type": "address"
        },
        {
          "internalType": "uint256",
          "name": "tokenId",
          "type": "uint256"
        }
      ],
      "name": "safeTransferFrom",
      "outputs": [],
      "stateMutability": "nonpayable",
      "type": "function"
    },
    {
      "inputs": [
        {
          "internalType": "address",
          "name": "from",
          "type": "address"
        },
        {
          "internalType": "address",
          "name": "to",
          "type": "address"
        },
        {
          "internalType": "uint256",
          "name": "tokenId",
          "type": "uint256"
        },
        {
          "internalType": "bytes",
          "name": "_data",
          "type": "bytes"
        }
      ],
      "name": "safeTransferFrom",
      "outputs": [],
      "stateMutability": "nonpayable",
      "type": "function"
    },
    {
      "inputs": [
        {
          "internalType": "address",
          "name": "operator",
          "type": "address"
        },
        {
          "internalType": "bool",
          "name": "approved",
          "type": "bool"
        }
      ],
      "name": "setApprovalForAll",
      "outputs": [],
      "stateMutability": "nonpayable",
      "type": "function"
    },
    {
      "inputs": [],
      "name": "startTime",
      "outputs": [
        {
          "internalType": "uint256",
          "name": "",
          "type": "uint256"
        }
      ],
      "stateMutability": "view",
      "type": "function"
    },
    {
      "inputs": [
        {
          "internalType": "bytes4",
          "name": "interfaceId",
          "type": "bytes4"
        }
      ],
      "name": "supportsInterface",
      "outputs": [
        {
          "internalType": "bool",
          "name": "",
          "type": "bool"
        }
      ],
      "stateMutability": "view",
      "type": "function"
    },
    {
      "inputs": [],
      "name": "symbol",
      "outputs": [
        {
          "internalType": "string",
          "name": "",
          "type": "string"
        }
      ],
      "stateMutability": "view",
      "type": "function"
    },
    {
      "inputs": [
        {
          "internalType": "uint256",
          "name": "tokenId",
          "type": "uint256"
        }
      ],
      "name": "tokenURI",
      "outputs": [
        {
          "internalType": "string",
          "name": "",
          "type": "string"
        }
      ],
      "stateMutability": "view",
      "type": "function"
    },
    {
      "inputs": [
        {
          "internalType": "address",
          "name": "from",
          "type": "address"
        },
        {
          "internalType": "address",
          "name": "to",
          "type": "address"
        },
        {
          "internalType": "uint256",
          "name": "tokenId",
          "type": "uint256"
        }
      ],
      "name": "transferFrom",
      "outputs": [],
      "stateMutability": "nonpayable",
      "type": "function"
    },
    {
      "inputs": [
        {
          "internalType": "address",
          "name": "newOwner",
          "type": "address"
        }
      ],
      "name": "transferOwnership",
      "outputs": [],
      "stateMutability": "nonpayable",
      "type": "function"
    },
    {
      "inputs": [
        {
          "internalType": "string[]",
          "name": "_candidates",
          "type": "string[]"
        }
      ],
      "name": "addBatch",
      "outputs": [],
      "stateMutability": "nonpayable",
      "type": "function"
    },
    {
      "inputs": [],
      "name": "getTotalMined",
      "outputs": [
        {
          "internalType": "uint256",
          "name": "",
          "type": "uint256"
        }
      ],
      "stateMutability": "view",
      "type": "function"
    },
    {
      "inputs": [],
      "name": "getAllCandidates",
      "outputs": [
        {
          "internalType": "string[]",
          "name": "",
          "type": "string[]"
        }
      ],
      "stateMutability": "view",
      "type": "function"
    },
    {
      "inputs": [],
      "name": "mintRandom",
      "outputs": [],
      "stateMutability": "payable",
      "type": "function"
    }
  ],
  "bytecode": "0x60806040523480156200001157600080fd5b506040516200407c3803806200407c83398181016040528101906200003791906200040d565b838381600090805190602001906200005192919062000185565b5080600190805190602001906200006a92919062000185565b5050506200009f6200008a620000b7640100000000026401000000009004565b620000bf640100000000026401000000009004565b8060098190555081600a819055505050505062000522565b600033905090565b6000600760009054906101000a900473ffffffffffffffffffffffffffffffffffffffff16905081600760006101000a81548173ffffffffffffffffffffffffffffffffffffffff021916908373ffffffffffffffffffffffffffffffffffffffff1602179055508173ffffffffffffffffffffffffffffffffffffffff168173ffffffffffffffffffffffffffffffffffffffff167f8be0079c531659141344cd1fd0a4f28419497f9722a3daafe3b4186f6b6457e060405160405180910390a35050565b8280546200019390620004ec565b90600052602060002090601f016020900481019282620001b7576000855562000203565b82601f10620001d257805160ff191683800117855562000203565b8280016001018555821562000203579182015b8281111562000202578251825591602001919060010190620001e5565b5b50905062000212919062000216565b5090565b5b808211156200023157600081600090555060010162000217565b5090565b6000604051905090565b600080fd5b600080fd5b600080fd5b600080fd5b6000601f19601f8301169050919050565b7f4e487b7100000000000000000000000000000000000000000000000000000000600052604160045260246000fd5b6200029e8262000253565b810181811067ffffffffffffffff82111715620002c057620002bf62000264565b5b80604052505050565b6000620002d562000235565b9050620002e3828262000293565b919050565b600067ffffffffffffffff82111562000306576200030562000264565b5b620003118262000253565b9050602081019050919050565b60005b838110156200033e57808201518184015260208101905062000321565b838111156200034e576000848401525b50505050565b60006200036b6200036584620002e8565b620002c9565b9050828152602081018484840111156200038a57620003896200024e565b5b620003978482856200031e565b509392505050565b600082601f830112620003b757620003b662000249565b5b8151620003c984826020860162000354565b91505092915050565b6000819050919050565b620003e781620003d2565b8114620003f357600080fd5b50565b6000815190506200040781620003dc565b92915050565b600080600080608085870312156200042a57620004296200023f565b5b600085015167ffffffffffffffff8111156200044b576200044a62000244565b5b62000459878288016200039f565b945050602085015167ffffffffffffffff8111156200047d576200047c62000244565b5b6200048b878288016200039f565b93505060406200049e87828801620003f6565b9250506060620004b187828801620003f6565b91505092959194509250565b7f4e487b7100000000000000000000000000000000000000000000000000000000600052602260045260246000fd5b600060028204905060018216806200050557607f821691505b602082108114156200051c576200051b620004bd565b5b50919050565b613b4a80620005326000396000f3fe60806040526004361061015d576000357c010000000000000000000000000000000000000000000000000000000090048063715018a6116100d3578063b155d7fa1161008c578063b155d7fa14610479578063b7ec208614610483578063b88d4fde146104ae578063c87b56dd146104d7578063e985e9c514610514578063f2fde38b146105515761015d565b8063715018a61461038d57806378e97925146103a45780638c2d1549146103cf5780638da5cb5b146103fa57806395d89b4114610425578063a22cb465146104505761015d565b80632e6997fe116101255780632e6997fe146102595780633477ee2e1461028457806342842e0e146102c1578063531285b9146102ea5780636352211e1461031357806370a08231146103505761015d565b806301ffc9a71461016257806306fdde031461019f578063081812fc146101ca578063095ea7b31461020757806323b872dd14610230575b600080fd5b34801561016e57600080fd5b5061018960048036038101906101849190612546565b61057a565b604051610196919061258e565b60405180910390f35b3480156101ab57600080fd5b506101b461065c565b6040516101c19190612642565b60405180910390f35b3480156101d657600080fd5b506101f160048036038101906101ec919061269a565b6106ee565b6040516101fe9190612708565b60405180910390f35b34801561021357600080fd5b5061022e6004803603810190610229919061274f565b610773565b005b34801561023c57600080fd5b506102576004803603810190610252919061278f565b61088b565b005b34801561026557600080fd5b5061026e6108eb565b60405161027b91906128ee565b60405180910390f35b34801561029057600080fd5b506102ab60048036038101906102a6919061269a565b6109c4565b6040516102b89190612642565b60405180910390f35b3480156102cd57600080fd5b506102e860048036038101906102e3919061278f565b610a70565b005b3480156102f657600080fd5b50610311600480360381019061030c9190612975565b610a90565b005b34801561031f57600080fd5b5061033a6004803603810190610335919061269a565b610bd2565b6040516103479190612708565b60405180910390f35b34801561035c57600080fd5b50610377600480360381019061037291906129c2565b610c84565b60405161038491906129fe565b60405180910390f35b34801561039957600080fd5b506103a2610d3c565b005b3480156103b057600080fd5b506103b9610dc4565b6040516103c691906129fe565b60405180910390f35b3480156103db57600080fd5b506103e4610dca565b6040516103f191906129fe565b60405180910390f35b34801561040657600080fd5b5061040f610ddb565b60405161041c9190612708565b60405180910390f35b34801561043157600080fd5b5061043a610e05565b6040516104479190612642565b60405180910390f35b34801561045c57600080fd5b5061047760048036038101906104729190612a45565b610e97565b005b610481610ead565b005b34801561048f57600080fd5b50610498611115565b6040516104a591906129fe565b60405180910390f35b3480156104ba57600080fd5b506104d560048036038101906104d09190612bb5565b61111b565b005b3480156104e357600080fd5b506104fe60048036038101906104f9919061269a565b61117d565b60405161050b9190612642565b60405180910390f35b34801561052057600080fd5b5061053b60048036038101906105369190612c38565b6112cf565b604051610548919061258e565b60405180910390f35b34801561055d57600080fd5b50610578600480360381019061057391906129c2565b611363565b005b60007f80ac58cd000000000000000000000000000000000000000000000000000000007bffffffffffffffffffffffffffffffffffffffffffffffffffffffff1916827bffffffffffffffffffffffffffffffffffffffffffffffffffffffff1916148061064557507f5b5e139f000000000000000000000000000000000000000000000000000000007bffffffffffffffffffffffffffffffffffffffffffffffffffffffff1916827bffffffffffffffffffffffffffffffffffffffffffffffffffffffff1916145b8061065557506106548261145b565b5b9050919050565b60606000805461066b90612ca7565b80601f016020809104026020016040519081016040528092919081815260200182805461069790612ca7565b80156106e45780601f106106b9576101008083540402835291602001916106e4565b820191906000526020600020905b8154815290600101906020018083116106c757829003601f168201915b5050505050905090565b60006106f9826114c5565b610738576040517f08c379a000000000000000000000000000000000000000000000000000000000815260040161072f90612d4b565b60405180910390fd5b6004600083815260200190815260200160002060009054906101000a900473ffffffffffffffffffffffffffffffffffffffff169050919050565b600061077e82610bd2565b90508073ffffffffffffffffffffffffffffffffffffffff168373ffffffffffffffffffffffffffffffffffffffff1614156107ef576040517f08c379a00000000000000000000000000000000000000000000000000000000081526004016107e690612ddd565b60405180910390fd5b8073ffffffffffffffffffffffffffffffffffffffff1661080e611531565b73ffffffffffffffffffffffffffffffffffffffff16148061083d575061083c81610837611531565b6112cf565b5b61087c576040517f08c379a000000000000000000000000000000000000000000000000000000000815260040161087390612e6f565b60405180910390fd5b6108868383611539565b505050565b61089c610896611531565b826115f2565b6108db576040517f08c379a00000000000000000000000000000000000000000000000000000000081526004016108d290612f01565b60405180910390fd5b6108e68383836116d0565b505050565b6060600b805480602002602001604051908101604052809291908181526020016000905b828210156109bb57838290600052602060002001805461092e90612ca7565b80601f016020809104026020016040519081016040528092919081815260200182805461095a90612ca7565b80156109a75780601f1061097c576101008083540402835291602001916109a7565b820191906000526020600020905b81548152906001019060200180831161098a57829003601f168201915b50505050508152602001906001019061090f565b50505050905090565b600b81815481106109d457600080fd5b9060005260206000200160009150905080546109ef90612ca7565b80601f0160208091040260200160405190810160405280929190818152602001828054610a1b90612ca7565b8015610a685780601f10610a3d57610100808354040283529160200191610a68565b820191906000526020600020905b815481529060010190602001808311610a4b57829003601f168201915b505050505081565b610a8b8383836040518060200160405280600081525061111b565b505050565b610a98611531565b73ffffffffffffffffffffffffffffffffffffffff16610ab6610ddb565b73ffffffffffffffffffffffffffffffffffffffff1614610b0c576040517f08c379a0000000000000000000000000000000000000000000000000000000008152600401610b0390612f6d565b60405180910390fd5b60095480421115610b49576040517fecdd1c2900000000000000000000000000000000000000000000000000000000815260040160405180910390fd5b60005b83839050811015610bcc57600b848483818110610b6c57610b6b612f8d565b5b9050602002810190610b7e9190612fcb565b90918060018154018082558091505060019003906000526020600020016000909192909192909192909192509190610bb79291906122e4565b50600181610bc5919061305d565b9050610b4c565b50505050565b6000806002600084815260200190815260200160002060009054906101000a900473ffffffffffffffffffffffffffffffffffffffff169050600073ffffffffffffffffffffffffffffffffffffffff168173ffffffffffffffffffffffffffffffffffffffff161415610c7b576040517f08c379a0000000000000000000000000000000000000000000000000000000008152600401610c7290613125565b60405180910390fd5b80915050919050565b60008073ffffffffffffffffffffffffffffffffffffffff168273ffffffffffffffffffffffffffffffffffffffff161415610cf5576040517f08c379a0000000000000000000000000000000000000000000000000000000008152600401610cec906131b7565b60405180910390fd5b600360008373ffffffffffffffffffffffffffffffffffffffff1673ffffffffffffffffffffffffffffffffffffffff168152602001908152602001600020549050919050565b610d44611531565b73ffffffffffffffffffffffffffffffffffffffff16610d62610ddb565b73ffffffffffffffffffffffffffffffffffffffff1614610db8576040517f08c379a0000000000000000000000000000000000000000000000000000000008152600401610daf90612f6d565b60405180910390fd5b610dc2600061192c565b565b60095481565b6000610dd660086119f2565b905090565b6000600760009054906101000a900473ffffffffffffffffffffffffffffffffffffffff16905090565b606060018054610e1490612ca7565b80601f0160208091040260200160405190810160405280929190818152602001828054610e4090612ca7565b8015610e8d5780601f10610e6257610100808354040283529160200191610e8d565b820191906000526020600020905b815481529060010190602001808311610e7057829003601f168201915b5050505050905090565b610ea9610ea2611531565b8383611a00565b5050565b600a54341015610ef2576040517f08c379a0000000000000000000000000000000000000000000000000000000008152600401610ee990613223565b60405180910390fd5b6000610efe60086119f2565b90506000600b805490501415610f40576040517f3db2a12a00000000000000000000000000000000000000000000000000000000815260040160405180910390fd5b6000610f4a611b6d565b90506000600b8054905082610f5f9190613272565b90506000600b8281548110610f7757610f76612f8d565b5b906000526020600020018054610f8c90612ca7565b80601f0160208091040260200160405190810160405280929190818152602001828054610fb890612ca7565b80156110055780601f10610fda57610100808354040283529160200191611005565b820191906000526020600020905b815481529060010190602001808311610fe857829003601f168201915b50505050509050600b6001600b8054905061102091906132a3565b8154811061103157611030612f8d565b5b90600052602060002001600b838154811061104f5761104e612f8d565b5b9060005260206000200190805461106590612ca7565b61107092919061236a565b50600b805480611083576110826132d7565b5b60019003818190600052602060002001600061109f91906123f7565b90556110ab3385611ba1565b6110b58482611bbf565b6110bf6008611c33565b3373ffffffffffffffffffffffffffffffffffffffff167f983d37d8751fcfa80e95e5fe2c0f46fb7b541b280961dc7ac00aa2670e2edd878583604051611107929190613306565b60405180910390a250505050565b600a5481565b61112c611126611531565b836115f2565b61116b576040517f08c379a000000000000000000000000000000000000000000000000000000000815260040161116290612f01565b60405180910390fd5b61117784848484611c49565b50505050565b6060611188826114c5565b6111c7576040517f08c379a00000000000000000000000000000000000000000000000000000000081526004016111be906133a8565b60405180910390fd5b60006006600084815260200190815260200160002080546111e790612ca7565b80601f016020809104026020016040519081016040528092919081815260200182805461121390612ca7565b80156112605780601f1061123557610100808354040283529160200191611260565b820191906000526020600020905b81548152906001019060200180831161124357829003601f168201915b505050505090506000611271611ca5565b90506000815114156112875781925050506112ca565b6000825111156112bc5780826040516020016112a4929190613404565b604051602081830303815290604052925050506112ca565b6112c584611cbc565b925050505b919050565b6000600560008473ffffffffffffffffffffffffffffffffffffffff1673ffffffffffffffffffffffffffffffffffffffff16815260200190815260200160002060008373ffffffffffffffffffffffffffffffffffffffff1673ffffffffffffffffffffffffffffffffffffffff16815260200190815260200160002060009054906101000a900460ff16905092915050565b61136b611531565b73ffffffffffffffffffffffffffffffffffffffff16611389610ddb565b73ffffffffffffffffffffffffffffffffffffffff16146113df576040517f08c379a00000000000000000000000000000000000000000000000000000000081526004016113d690612f6d565b60405180910390fd5b600073ffffffffffffffffffffffffffffffffffffffff168173ffffffffffffffffffffffffffffffffffffffff16141561144f576040517f08c379a00000000000000000000000000000000000000000000000000000000081526004016114469061349a565b60405180910390fd5b6114588161192c565b50565b60007f01ffc9a7000000000000000000000000000000000000000000000000000000007bffffffffffffffffffffffffffffffffffffffffffffffffffffffff1916827bffffffffffffffffffffffffffffffffffffffffffffffffffffffff1916149050919050565b60008073ffffffffffffffffffffffffffffffffffffffff166002600084815260200190815260200160002060009054906101000a900473ffffffffffffffffffffffffffffffffffffffff1673ffffffffffffffffffffffffffffffffffffffff1614159050919050565b600033905090565b816004600083815260200190815260200160002060006101000a81548173ffffffffffffffffffffffffffffffffffffffff021916908373ffffffffffffffffffffffffffffffffffffffff160217905550808273ffffffffffffffffffffffffffffffffffffffff166115ac83610bd2565b73ffffffffffffffffffffffffffffffffffffffff167f8c5be1e5ebec7d5bd14f71427d1e84f3dd0314c0f7b2291e5b200ac8c7c3b92560405160405180910390a45050565b60006115fd826114c5565b61163c576040517f08c379a00000000000000000000000000000000000000000000000000000000081526004016116339061352c565b60405180910390fd5b600061164783610bd2565b90508073ffffffffffffffffffffffffffffffffffffffff168473ffffffffffffffffffffffffffffffffffffffff1614806116b657508373ffffffffffffffffffffffffffffffffffffffff1661169e846106ee565b73ffffffffffffffffffffffffffffffffffffffff16145b806116c757506116c681856112cf565b5b91505092915050565b8273ffffffffffffffffffffffffffffffffffffffff166116f082610bd2565b73ffffffffffffffffffffffffffffffffffffffff1614611746576040517f08c379a000000000000000000000000000000000000000000000000000000000815260040161173d906135be565b60405180910390fd5b600073ffffffffffffffffffffffffffffffffffffffff168273ffffffffffffffffffffffffffffffffffffffff1614156117b6576040517f08c379a00000000000000000000000000000000000000000000000000000000081526004016117ad90613650565b60405180910390fd5b6117c1838383611d63565b6117cc600082611539565b6001600360008573ffffffffffffffffffffffffffffffffffffffff1673ffffffffffffffffffffffffffffffffffffffff168152602001908152602001600020600082825461181c91906132a3565b925050819055506001600360008473ffffffffffffffffffffffffffffffffffffffff1673ffffffffffffffffffffffffffffffffffffffff1681526020019081526020016000206000828254611873919061305d565b92505081905550816002600083815260200190815260200160002060006101000a81548173ffffffffffffffffffffffffffffffffffffffff021916908373ffffffffffffffffffffffffffffffffffffffff160217905550808273ffffffffffffffffffffffffffffffffffffffff168473ffffffffffffffffffffffffffffffffffffffff167fddf252ad1be2c89b69c2b068fc378daa952ba7f163c4a11628f55a4df523b3ef60405160405180910390a4505050565b6000600760009054906101000a900473ffffffffffffffffffffffffffffffffffffffff16905081600760006101000a81548173ffffffffffffffffffffffffffffffffffffffff021916908373ffffffffffffffffffffffffffffffffffffffff1602179055508173ffffffffffffffffffffffffffffffffffffffff168173ffffffffffffffffffffffffffffffffffffffff167f8be0079c531659141344cd1fd0a4f28419497f9722a3daafe3b4186f6b6457e060405160405180910390a35050565b600081600001549050919050565b8173ffffffffffffffffffffffffffffffffffffffff168373ffffffffffffffffffffffffffffffffffffffff161415611a6f576040517f08c379a0000000000000000000000000000000000000000000000000000000008152600401611a66906136bc565b60405180910390fd5b80600560008573ffffffffffffffffffffffffffffffffffffffff1673ffffffffffffffffffffffffffffffffffffffff16815260200190815260200160002060008473ffffffffffffffffffffffffffffffffffffffff1673ffffffffffffffffffffffffffffffffffffffff16815260200190815260200160002060006101000a81548160ff0219169083151502179055508173ffffffffffffffffffffffffffffffffffffffff168373ffffffffffffffffffffffffffffffffffffffff167f17307eab39ab6107e8899845ad3d59bd9653f200f220920489ca2b5937696c3183604051611b60919061258e565b60405180910390a3505050565b60004442604051602001611b829291906136fd565b6040516020818303038152906040528051906020012060019004905090565b611bbb828260405180602001604052806000815250611d68565b5050565b611bc8826114c5565b611c07576040517f08c379a0000000000000000000000000000000000000000000000000000000008152600401611bfe9061379b565b60405180910390fd5b80600660008481526020019081526020016000209080519060200190611c2e929190612437565b505050565b6001816000016000828254019250508190555050565b611c548484846116d0565b611c6084848484611dc3565b611c9f576040517f08c379a0000000000000000000000000000000000000000000000000000000008152600401611c969061382d565b60405180910390fd5b50505050565b606060405180602001604052806000815250905090565b6060611cc7826114c5565b611d06576040517f08c379a0000000000000000000000000000000000000000000000000000000008152600401611cfd906138bf565b60405180910390fd5b6000611d10611ca5565b90506000815111611d305760405180602001604052806000815250611d5b565b80611d3a84611f83565b604051602001611d4b929190613404565b6040516020818303038152906040525b915050919050565b505050565b611d728383612103565b611d7f6000848484611dc3565b611dbe576040517f08c379a0000000000000000000000000000000000000000000000000000000008152600401611db59061382d565b60405180910390fd5b505050565b6000611de48473ffffffffffffffffffffffffffffffffffffffff166122d1565b15611f76578373ffffffffffffffffffffffffffffffffffffffff1663150b7a02611e0d611531565b8786866040518563ffffffff167c0100000000000000000000000000000000000000000000000000000000028152600401611e4b9493929190613934565b6020604051808303816000875af1925050508015611e8757506040513d601f19601f82011682018060405250810190611e849190613995565b60015b611f0a573d8060008114611eb7576040519150601f19603f3d011682016040523d82523d6000602084013e611ebc565b606091505b50600081511415611f02576040517f08c379a0000000000000000000000000000000000000000000000000000000008152600401611ef99061382d565b60405180910390fd5b805181602001fd5b63150b7a027c0100000000000000000000000000000000000000000000000000000000027bffffffffffffffffffffffffffffffffffffffffffffffffffffffff1916817bffffffffffffffffffffffffffffffffffffffffffffffffffffffff191614915050611f7b565b600190505b949350505050565b60606000821415611fcb576040518060400160405280600181526020017f300000000000000000000000000000000000000000000000000000000000000081525090506120fe565b600082905060005b60008214611ffd578080611fe6906139c2565b915050600a82611ff69190613a0b565b9150611fd3565b60008167ffffffffffffffff81111561201957612018612a8a565b5b6040519080825280601f01601f19166020018201604052801561204b5781602001600182028036833780820191505090505b5090505b600085146120f75760018261206491906132a3565b9150600a856120739190613272565b603061207f919061305d565b7f0100000000000000000000000000000000000000000000000000000000000000028183815181106120b4576120b3612f8d565b5b60200101907effffffffffffffffffffffffffffffffffffffffffffffffffffffffffffff1916908160001a905350600a856120f09190613a0b565b945061204f565b8093505050505b919050565b600073ffffffffffffffffffffffffffffffffffffffff168273ffffffffffffffffffffffffffffffffffffffff161415612173576040517f08c379a000000000000000000000000000000000000000000000000000000000815260040161216a90613a88565b60405180910390fd5b61217c816114c5565b156121bc576040517f08c379a00000000000000000000000000000000000000000000000000000000081526004016121b390613af4565b60405180910390fd5b6121c860008383611d63565b6001600360008473ffffffffffffffffffffffffffffffffffffffff1673ffffffffffffffffffffffffffffffffffffffff1681526020019081526020016000206000828254612218919061305d565b92505081905550816002600083815260200190815260200160002060006101000a81548173ffffffffffffffffffffffffffffffffffffffff021916908373ffffffffffffffffffffffffffffffffffffffff160217905550808273ffffffffffffffffffffffffffffffffffffffff16600073ffffffffffffffffffffffffffffffffffffffff167fddf252ad1be2c89b69c2b068fc378daa952ba7f163c4a11628f55a4df523b3ef60405160405180910390a45050565b600080823b905060008111915050919050565b8280546122f090612ca7565b90600052602060002090601f0160209004810192826123125760008555612359565b82601f1061232b57803560ff1916838001178555612359565b82800160010185558215612359579182015b8281111561235857823582559160200191906001019061233d565b5b50905061236691906124bd565b5090565b82805461237690612ca7565b90600052602060002090601f01602090048101928261239857600085556123e6565b82601f106123a957805485556123e6565b828001600101855582156123e657600052602060002091601f016020900482015b828111156123e55782548255916001019190600101906123ca565b5b5090506123f391906124bd565b5090565b50805461240390612ca7565b6000825580601f106124155750612434565b601f01602090049060005260206000209081019061243391906124bd565b5b50565b82805461244390612ca7565b90600052602060002090601f01602090048101928261246557600085556124ac565b82601f1061247e57805160ff19168380011785556124ac565b828001600101855582156124ac579182015b828111156124ab578251825591602001919060010190612490565b5b5090506124b991906124bd565b5090565b5b808211156124d65760008160009055506001016124be565b5090565b6000604051905090565b600080fd5b600080fd5b60007fffffffff0000000000000000000000000000000000000000000000000000000082169050919050565b612523816124ee565b811461252e57600080fd5b50565b6000813590506125408161251a565b92915050565b60006020828403121561255c5761255b6124e4565b5b600061256a84828501612531565b91505092915050565b60008115159050919050565b61258881612573565b82525050565b60006020820190506125a3600083018461257f565b92915050565b600081519050919050565b600082825260208201905092915050565b60005b838110156125e35780820151818401526020810190506125c8565b838111156125f2576000848401525b50505050565b6000601f19601f8301169050919050565b6000612614826125a9565b61261e81856125b4565b935061262e8185602086016125c5565b612637816125f8565b840191505092915050565b6000602082019050818103600083015261265c8184612609565b905092915050565b6000819050919050565b61267781612664565b811461268257600080fd5b50565b6000813590506126948161266e565b92915050565b6000602082840312156126b0576126af6124e4565b5b60006126be84828501612685565b91505092915050565b600073ffffffffffffffffffffffffffffffffffffffff82169050919050565b60006126f2826126c7565b9050919050565b612702816126e7565b82525050565b600060208201905061271d60008301846126f9565b92915050565b61272c816126e7565b811461273757600080fd5b50565b60008135905061274981612723565b92915050565b60008060408385031215612766576127656124e4565b5b60006127748582860161273a565b925050602061278585828601612685565b9150509250929050565b6000806000606084860312156127a8576127a76124e4565b5b60006127b68682870161273a565b93505060206127c78682870161273a565b92505060406127d886828701612685565b9150509250925092565b600081519050919050565b600082825260208201905092915050565b6000819050602082019050919050565b600082825260208201905092915050565b600061282a826125a9565b612834818561280e565b93506128448185602086016125c5565b61284d816125f8565b840191505092915050565b6000612864838361281f565b905092915050565b6000602082019050919050565b6000612884826127e2565b61288e81856127ed565b9350836020820285016128a0856127fe565b8060005b858110156128dc57848403895281516128bd8582612858565b94506128c88361286c565b925060208a019950506001810190506128a4565b50829750879550505050505092915050565b600060208201905081810360008301526129088184612879565b905092915050565b600080fd5b600080fd5b600080fd5b60008083601f84011261293557612934612910565b5b8235905067ffffffffffffffff81111561295257612951612915565b5b60208301915083602082028301111561296e5761296d61291a565b5b9250929050565b6000806020838503121561298c5761298b6124e4565b5b600083013567ffffffffffffffff8111156129aa576129a96124e9565b5b6129b68582860161291f565b92509250509250929050565b6000602082840312156129d8576129d76124e4565b5b60006129e68482850161273a565b91505092915050565b6129f881612664565b82525050565b6000602082019050612a1360008301846129ef565b92915050565b612a2281612573565b8114612a2d57600080fd5b50565b600081359050612a3f81612a19565b92915050565b60008060408385031215612a5c57612a5b6124e4565b5b6000612a6a8582860161273a565b9250506020612a7b85828601612a30565b9150509250929050565b600080fd5b7f4e487b7100000000000000000000000000000000000000000000000000000000600052604160045260246000fd5b612ac2826125f8565b810181811067ffffffffffffffff82111715612ae157612ae0612a8a565b5b80604052505050565b6000612af46124da565b9050612b008282612ab9565b919050565b600067ffffffffffffffff821115612b2057612b1f612a8a565b5b612b29826125f8565b9050602081019050919050565b82818337600083830152505050565b6000612b58612b5384612b05565b612aea565b905082815260208101848484011115612b7457612b73612a85565b5b612b7f848285612b36565b509392505050565b600082601f830112612b9c57612b9b612910565b5b8135612bac848260208601612b45565b91505092915050565b60008060008060808587031215612bcf57612bce6124e4565b5b6000612bdd8782880161273a565b9450506020612bee8782880161273a565b9350506040612bff87828801612685565b925050606085013567ffffffffffffffff811115612c2057612c1f6124e9565b5b612c2c87828801612b87565b91505092959194509250565b60008060408385031215612c4f57612c4e6124e4565b5b6000612c5d8582860161273a565b9250506020612c6e8582860161273a565b9150509250929050565b7f4e487b7100000000000000000000000000000000000000000000000000000000600052602260045260246000fd5b60006002820490506001821680612cbf57607f821691505b60208210811415612cd357612cd2612c78565b5b50919050565b7f4552433732313a20617070726f76656420717565727920666f72206e6f6e657860008201527f697374656e7420746f6b656e0000000000000000000000000000000000000000602082015250565b6000612d35602c836125b4565b9150612d4082612cd9565b604082019050919050565b60006020820190508181036000830152612d6481612d28565b9050919050565b7f4552433732313a20617070726f76616c20746f2063757272656e74206f776e6560008201527f7200000000000000000000000000000000000000000000000000000000000000602082015250565b6000612dc76021836125b4565b9150612dd282612d6b565b604082019050919050565b60006020820190508181036000830152612df681612dba565b9050919050565b7f4552433732313a20617070726f76652063616c6c6572206973206e6f74206f7760008201527f6e6572206e6f7220617070726f76656420666f7220616c6c0000000000000000602082015250565b6000612e596038836125b4565b9150612e6482612dfd565b604082019050919050565b60006020820190508181036000830152612e8881612e4c565b9050919050565b7f4552433732313a207472616e736665722063616c6c6572206973206e6f74206f60008201527f776e6572206e6f7220617070726f766564000000000000000000000000000000602082015250565b6000612eeb6031836125b4565b9150612ef682612e8f565b604082019050919050565b60006020820190508181036000830152612f1a81612ede565b9050919050565b7f4f776e61626c653a2063616c6c6572206973206e6f7420746865206f776e6572600082015250565b6000612f576020836125b4565b9150612f6282612f21565b602082019050919050565b60006020820190508181036000830152612f8681612f4a565b9050919050565b7f4e487b7100000000000000000000000000000000000000000000000000000000600052603260045260246000fd5b600080fd5b600080fd5b600080fd5b60008083356001602003843603038112612fe857612fe7612fbc565b5b80840192508235915067ffffffffffffffff82111561300a57613009612fc1565b5b60208301925060018202360383131561302657613025612fc6565b5b509250929050565b7f4e487b7100000000000000000000000000000000000000000000000000000000600052601160045260246000fd5b600061306882612664565b915061307383612664565b9250827fffffffffffffffffffffffffffffffffffffffffffffffffffffffffffffffff038211156130a8576130a761302e565b5b828201905092915050565b7f4552433732313a206f776e657220717565727920666f72206e6f6e657869737460008201527f656e7420746f6b656e0000000000000000000000000000000000000000000000602082015250565b600061310f6029836125b4565b915061311a826130b3565b604082019050919050565b6000602082019050818103600083015261313e81613102565b9050919050565b7f4552433732313a2062616c616e636520717565727920666f7220746865207a6560008201527f726f206164647265737300000000000000000000000000000000000000000000602082015250565b60006131a1602a836125b4565b91506131ac82613145565b604082019050919050565b600060208201905081810360008301526131d081613194565b9050919050565b7f496e73756666696369656e742070726963650000000000000000000000000000600082015250565b600061320d6012836125b4565b9150613218826131d7565b602082019050919050565b6000602082019050818103600083015261323c81613200565b9050919050565b7f4e487b7100000000000000000000000000000000000000000000000000000000600052601260045260246000fd5b600061327d82612664565b915061328883612664565b92508261329857613297613243565b5b828206905092915050565b60006132ae82612664565b91506132b983612664565b9250828210156132cc576132cb61302e565b5b828203905092915050565b7f4e487b7100000000000000000000000000000000000000000000000000000000600052603160045260246000fd5b600060408201905061331b60008301856129ef565b818103602083015261332d8184612609565b90509392505050565b7f45524337323155524953746f726167653a2055524920717565727920666f722060008201527f6e6f6e6578697374656e7420746f6b656e000000000000000000000000000000602082015250565b60006133926031836125b4565b915061339d82613336565b604082019050919050565b600060208201905081810360008301526133c181613385565b9050919050565b600081905092915050565b60006133de826125a9565b6133e881856133c8565b93506133f88185602086016125c5565b80840191505092915050565b600061341082856133d3565b915061341c82846133d3565b91508190509392505050565b7f4f776e61626c653a206e6577206f776e657220697320746865207a65726f206160008201527f6464726573730000000000000000000000000000000000000000000000000000602082015250565b60006134846026836125b4565b915061348f82613428565b604082019050919050565b600060208201905081810360008301526134b381613477565b9050919050565b7f4552433732313a206f70657261746f7220717565727920666f72206e6f6e657860008201527f697374656e7420746f6b656e0000000000000000000000000000000000000000602082015250565b6000613516602c836125b4565b9150613521826134ba565b604082019050919050565b6000602082019050818103600083015261354581613509565b9050919050565b7f4552433732313a207472616e73666572206f6620746f6b656e2074686174206960008201527f73206e6f74206f776e0000000000000000000000000000000000000000000000602082015250565b60006135a86029836125b4565b91506135b38261354c565b604082019050919050565b600060208201905081810360008301526135d78161359b565b9050919050565b7f4552433732313a207472616e7366657220746f20746865207a65726f2061646460008201527f7265737300000000000000000000000000000000000000000000000000000000602082015250565b600061363a6024836125b4565b9150613645826135de565b604082019050919050565b600060208201905081810360008301526136698161362d565b9050919050565b7f4552433732313a20617070726f766520746f2063616c6c657200000000000000600082015250565b60006136a66019836125b4565b91506136b182613670565b602082019050919050565b600060208201905081810360008301526136d581613699565b9050919050565b6000819050919050565b6136f76136f282612664565b6136dc565b82525050565b600061370982856136e6565b60208201915061371982846136e6565b6020820191508190509392505050565b7f45524337323155524953746f726167653a2055524920736574206f66206e6f6e60008201527f6578697374656e7420746f6b656e000000000000000000000000000000000000602082015250565b6000613785602e836125b4565b915061379082613729565b604082019050919050565b600060208201905081810360008301526137b481613778565b9050919050565b7f4552433732313a207472616e7366657220746f206e6f6e20455243373231526560008201527f63656976657220696d706c656d656e7465720000000000000000000000000000602082015250565b60006138176032836125b4565b9150613822826137bb565b604082019050919050565b600060208201905081810360008301526138468161380a565b9050919050565b7f4552433732314d657461646174613a2055524920717565727920666f72206e6f60008201527f6e6578697374656e7420746f6b656e0000000000000000000000000000000000602082015250565b60006138a9602f836125b4565b91506138b48261384d565b604082019050919050565b600060208201905081810360008301526138d88161389c565b9050919050565b600081519050919050565b600082825260208201905092915050565b6000613906826138df565b61391081856138ea565b93506139208185602086016125c5565b613929816125f8565b840191505092915050565b600060808201905061394960008301876126f9565b61395660208301866126f9565b61396360408301856129ef565b818103606083015261397581846138fb565b905095945050505050565b60008151905061398f8161251a565b92915050565b6000602082840312156139ab576139aa6124e4565b5b60006139b984828501613980565b91505092915050565b60006139cd82612664565b91507fffffffffffffffffffffffffffffffffffffffffffffffffffffffffffffffff821415613a00576139ff61302e565b5b600182019050919050565b6000613a1682612664565b9150613a2183612664565b925082613a3157613a30613243565b5b828204905092915050565b7f4552433732313a206d696e7420746f20746865207a65726f2061646472657373600082015250565b6000613a726020836125b4565b9150613a7d82613a3c565b602082019050919050565b60006020820190508181036000830152613aa181613a65565b9050919050565b7f4552433732313a20746f6b656e20616c7265616479206d696e74656400000000600082015250565b6000613ade601c836125b4565b9150613ae982613aa8565b602082019050919050565b60006020820190508181036000830152613b0d81613ad1565b905091905056fea2646970667358221220bbc05b6c65cf61d7f68dea989a9bb1f4a6930b6250caadaa6e73bf317119cea064736f6c634300080b0033",
  "immutableReferences": {},
  "source": "pragma solidity ^0.8.0;\r\n\r\nimport \"@openzeppelin/contracts/utils/Strings.sol\";\r\nimport \"@openzeppelin/contracts/token/ERC721/extensions/ERC721URIStorage.sol\";\r\nimport \"@openzeppelin/contracts/access/Ownable.sol\";\r\nimport \"@openzeppelin/contracts/utils/Counters.sol\";\r\nimport \"@openzeppelin/contracts/utils/math/SafeMath.sol\";\r\n\r\ncontract ERC721Minter is ERC721URIStorage, Ownable {\r\n    using Counters for Counters.Counter;\r\n    using SafeMath for uint256;\r\n    Counters.Counter private _tokenIds;\r\n\r\n    uint256 public startTime;\r\n    uint256 public priceWei;\r\n\r\n    string[] public candidates;\r\n\r\n    error Unauthorized();\r\n    error TooEarly();\r\n    error TooLate();\r\n    error Empty();\r\n    event Mint(uint256 tokenId, string url, address indexed sender);\r\n\r\n    constructor(\r\n        string memory _name,\r\n        string memory _symbol,\r\n        uint256 _priceWei,\r\n        uint256 _startTime\r\n    ) ERC721(_name, _symbol) {\r\n        startTime = _startTime;\r\n        priceWei = _priceWei;\r\n    }\r\n\r\n    modifier onlyAfter(uint256 _time) {\r\n        if (block.timestamp < _time) revert TooEarly();\r\n        _;\r\n    }\r\n\r\n    modifier onlyBefore(uint256 _time) {\r\n        if (block.timestamp > _time) revert TooLate();\r\n        _;\r\n    }\r\n\r\n    function addBatch(string[] calldata _candidates)\r\n        public\r\n        onlyOwner\r\n        onlyBefore(startTime)\r\n    {\r\n        for (uint256 i = 0; i < _candidates.length; i += 1) {\r\n            candidates.push(_candidates[i]);\r\n        }\r\n    }\r\n\r\n    function random() private view returns (uint256) {\r\n        return\r\n            uint256(\r\n                keccak256(abi.encodePacked(block.difficulty, block.timestamp))\r\n            );\r\n    }\r\n\r\n    function getTotalMined() public view returns (uint256) {\r\n        return _tokenIds.current();\r\n    }\r\n\r\n    function getAllCandidates() public view returns (string[] memory) {\r\n        return candidates;\r\n    }\r\n\r\n    function mintRandom() public payable {\r\n        require(msg.value >= priceWei, \"Insufficient price\");\r\n\r\n        uint256 newItemId = _tokenIds.current();\r\n        if (candidates.length == 0) {\r\n            revert Empty();\r\n        }\r\n        uint256 rand = random();\r\n        uint256 idx = rand % candidates.length;\r\n        string memory element = candidates[idx];\r\n        candidates[idx] = candidates[candidates.length - 1];\r\n        candidates.pop();\r\n\r\n        _safeMint(msg.sender, newItemId);\r\n        _setTokenURI(newItemId, element);\r\n\r\n        _tokenIds.increment();\r\n        emit Mint(newItemId, element, msg.sender);\r\n    }\r\n}\r\n",
  "sourcePath": "C:\\Users\\kumquatexpress\\projects\\retool\\contour\\contracts\\ERC721Minter.sol",
  "compiler": {
    "name": "solc",
    "version": "0.8.11+commit.d7f03943.Emscripten.clang"
  },
  "schemaVersion": "3.4.4",
  "updatedAt": "2022-03-07T23:31:39.322Z",
  "devdoc": {
    "kind": "dev",
    "methods": {
      "approve(address,uint256)": {
        "details": "See {IERC721-approve}."
      },
      "balanceOf(address)": {
        "details": "See {IERC721-balanceOf}."
      },
      "getApproved(uint256)": {
        "details": "See {IERC721-getApproved}."
      },
      "isApprovedForAll(address,address)": {
        "details": "See {IERC721-isApprovedForAll}."
      },
      "name()": {
        "details": "See {IERC721Metadata-name}."
      },
      "owner()": {
        "details": "Returns the address of the current owner."
      },
      "ownerOf(uint256)": {
        "details": "See {IERC721-ownerOf}."
      },
      "renounceOwnership()": {
        "details": "Leaves the contract without owner. It will not be possible to call `onlyOwner` functions anymore. Can only be called by the current owner. NOTE: Renouncing ownership will leave the contract without an owner, thereby removing any functionality that is only available to the owner."
      },
      "safeTransferFrom(address,address,uint256)": {
        "details": "See {IERC721-safeTransferFrom}."
      },
      "safeTransferFrom(address,address,uint256,bytes)": {
        "details": "See {IERC721-safeTransferFrom}."
      },
      "setApprovalForAll(address,bool)": {
        "details": "See {IERC721-setApprovalForAll}."
      },
      "supportsInterface(bytes4)": {
        "details": "See {IERC165-supportsInterface}."
      },
      "symbol()": {
        "details": "See {IERC721Metadata-symbol}."
      },
      "tokenURI(uint256)": {
        "details": "See {IERC721Metadata-tokenURI}."
      },
      "transferFrom(address,address,uint256)": {
        "details": "See {IERC721-transferFrom}."
      },
      "transferOwnership(address)": {
        "details": "Transfers ownership of the contract to a new account (`newOwner`). Can only be called by the current owner."
      }
    },
    "version": 1
  },
  "userdoc": {
    "kind": "user",
    "methods": {},
    "version": 1
  },
  "db": {
    "callBytecode": {
      "id": "0x2a2b8cce946e01da836f46f6a417ea6d0aa4f03aff75bd034a6f23441c3cd08f"
    },
    "createBytecode": {
      "id": "0x0ecf29a55bec1256033395a56d779dff2688d77bb8b225dd97689d018a3ced21"
    },
    "contract": {
      "id": "0x9625e03297a0829284b78fc347adafaefeb3b4d3909acb4cd4d1c02d598828dd"
    }
  }
}