{
  "contractName": "ERC721Minter",
  "abi": [
    {
      "inputs": [
        {
          "internalType": "string",
          "name": "_name",
          "type": "string"
        },
        {
          "internalType": "string",
          "name": "_symbol",
          "type": "string"
        },
        {
          "internalType": "uint256",
          "name": "_priceWei",
          "type": "uint256"
        },
        {
          "internalType": "uint256",
          "name": "_startTime",
          "type": "uint256"
        }
      ],
      "stateMutability": "nonpayable",
      "type": "constructor"
    },
    {
      "inputs": [],
      "name": "Empty",
      "type": "error"
    },
    {
      "inputs": [],
      "name": "TooEarly",
      "type": "error"
    },
    {
      "inputs": [],
      "name": "TooLate",
      "type": "error"
    },
    {
      "inputs": [],
      "name": "Unauthorized",
      "type": "error"
    },
    {
      "anonymous": false,
      "inputs": [
        {
          "indexed": true,
          "internalType": "address",
          "name": "owner",
          "type": "address"
        },
        {
          "indexed": true,
          "internalType": "address",
          "name": "approved",
          "type": "address"
        },
        {
          "indexed": true,
          "internalType": "uint256",
          "name": "tokenId",
          "type": "uint256"
        }
      ],
      "name": "Approval",
      "type": "event"
    },
    {
      "anonymous": false,
      "inputs": [
        {
          "indexed": true,
          "internalType": "address",
          "name": "owner",
          "type": "address"
        },
        {
          "indexed": true,
          "internalType": "address",
          "name": "operator",
          "type": "address"
        },
        {
          "indexed": false,
          "internalType": "bool",
          "name": "approved",
          "type": "bool"
        }
      ],
      "name": "ApprovalForAll",
      "type": "event"
    },
    {
      "anonymous": false,
      "inputs": [
        {
          "indexed": false,
          "internalType": "uint256",
          "name": "tokenId",
          "type": "uint256"
        },
        {
          "indexed": false,
          "internalType": "string",
          "name": "url",
          "type": "string"
        },
        {
          "indexed": true,
          "internalType": "address",
          "name": "sender",
          "type": "address"
        }
      ],
      "name": "Mint",
      "type": "event"
    },
    {
      "anonymous": false,
      "inputs": [
        {
          "indexed": true,
          "internalType": "address",
          "name": "previousOwner",
          "type": "address"
        },
        {
          "indexed": true,
          "internalType": "address",
          "name": "newOwner",
          "type": "address"
        }
      ],
      "name": "OwnershipTransferred",
      "type": "event"
    },
    {
      "anonymous": false,
      "inputs": [
        {
          "indexed": true,
          "internalType": "address",
          "name": "from",
          "type": "address"
        },
        {
          "indexed": true,
          "internalType": "address",
          "name": "to",
          "type": "address"
        },
        {
          "indexed": true,
          "internalType": "uint256",
          "name": "tokenId",
          "type": "uint256"
        }
      ],
      "name": "Transfer",
      "type": "event"
    },
    {
      "inputs": [
        {
          "internalType": "address",
          "name": "to",
          "type": "address"
        },
        {
          "internalType": "uint256",
          "name": "tokenId",
          "type": "uint256"
        }
      ],
      "name": "approve",
      "outputs": [],
      "stateMutability": "nonpayable",
      "type": "function"
    },
    {
      "inputs": [
        {
          "internalType": "address",
          "name": "owner",
          "type": "address"
        }
      ],
      "name": "balanceOf",
      "outputs": [
        {
          "internalType": "uint256",
          "name": "",
          "type": "uint256"
        }
      ],
      "stateMutability": "view",
      "type": "function"
    },
    {
      "inputs": [
        {
          "internalType": "uint256",
          "name": "",
          "type": "uint256"
        }
      ],
      "name": "candidates",
      "outputs": [
        {
          "internalType": "string",
          "name": "",
          "type": "string"
        }
      ],
      "stateMutability": "view",
      "type": "function"
    },
    {
      "inputs": [
        {
          "internalType": "uint256",
          "name": "tokenId",
          "type": "uint256"
        }
      ],
      "name": "getApproved",
      "outputs": [
        {
          "internalType": "address",
          "name": "",
          "type": "address"
        }
      ],
      "stateMutability": "view",
      "type": "function"
    },
    {
      "inputs": [
        {
          "internalType": "address",
          "name": "owner",
          "type": "address"
        },
        {
          "internalType": "address",
          "name": "operator",
          "type": "address"
        }
      ],
      "name": "isApprovedForAll",
      "outputs": [
        {
          "internalType": "bool",
          "name": "",
          "type": "bool"
        }
      ],
      "stateMutability": "view",
      "type": "function"
    },
    {
      "inputs": [],
      "name": "name",
      "outputs": [
        {
          "internalType": "string",
          "name": "",
          "type": "string"
        }
      ],
      "stateMutability": "view",
      "type": "function"
    },
    {
      "inputs": [],
      "name": "owner",
      "outputs": [
        {
          "internalType": "address",
          "name": "",
          "type": "address"
        }
      ],
      "stateMutability": "view",
      "type": "function"
    },
    {
      "inputs": [
        {
          "internalType": "uint256",
          "name": "tokenId",
          "type": "uint256"
        }
      ],
      "name": "ownerOf",
      "outputs": [
        {
          "internalType": "address",
          "name": "",
          "type": "address"
        }
      ],
      "stateMutability": "view",
      "type": "function"
    },
    {
      "inputs": [],
      "name": "priceWei",
      "outputs": [
        {
          "internalType": "uint256",
          "name": "",
          "type": "uint256"
        }
      ],
      "stateMutability": "view",
      "type": "function"
    },
    {
      "inputs": [],
      "name": "renounceOwnership",
      "outputs": [],
      "stateMutability": "nonpayable",
      "type": "function"
    },
    {
      "inputs": [
        {
          "internalType": "address",
          "name": "from",
          "type": "address"
        },
        {
          "internalType": "address",
          "name": "to",
          "type": "address"
        },
        {
          "internalType": "uint256",
          "name": "tokenId",
          "type": "uint256"
        }
      ],
      "name": "safeTransferFrom",
      "outputs": [],
      "stateMutability": "nonpayable",
      "type": "function"
    },
    {
      "inputs": [
        {
          "internalType": "address",
          "name": "from",
          "type": "address"
        },
        {
          "internalType": "address",
          "name": "to",
          "type": "address"
        },
        {
          "internalType": "uint256",
          "name": "tokenId",
          "type": "uint256"
        },
        {
          "internalType": "bytes",
          "name": "_data",
          "type": "bytes"
        }
      ],
      "name": "safeTransferFrom",
      "outputs": [],
      "stateMutability": "nonpayable",
      "type": "function"
    },
    {
      "inputs": [
        {
          "internalType": "address",
          "name": "operator",
          "type": "address"
        },
        {
          "internalType": "bool",
          "name": "approved",
          "type": "bool"
        }
      ],
      "name": "setApprovalForAll",
      "outputs": [],
      "stateMutability": "nonpayable",
      "type": "function"
    },
    {
      "inputs": [],
      "name": "startTime",
      "outputs": [
        {
          "internalType": "uint256",
          "name": "",
          "type": "uint256"
        }
      ],
      "stateMutability": "view",
      "type": "function"
    },
    {
      "inputs": [
        {
          "internalType": "bytes4",
          "name": "interfaceId",
          "type": "bytes4"
        }
      ],
      "name": "supportsInterface",
      "outputs": [
        {
          "internalType": "bool",
          "name": "",
          "type": "bool"
        }
      ],
      "stateMutability": "view",
      "type": "function"
    },
    {
      "inputs": [],
      "name": "symbol",
      "outputs": [
        {
          "internalType": "string",
          "name": "",
          "type": "string"
        }
      ],
      "stateMutability": "view",
      "type": "function"
    },
    {
      "inputs": [
        {
          "internalType": "uint256",
          "name": "tokenId",
          "type": "uint256"
        }
      ],
      "name": "tokenURI",
      "outputs": [
        {
          "internalType": "string",
          "name": "",
          "type": "string"
        }
      ],
      "stateMutability": "view",
      "type": "function"
    },
    {
      "inputs": [
        {
          "internalType": "address",
          "name": "from",
          "type": "address"
        },
        {
          "internalType": "address",
          "name": "to",
          "type": "address"
        },
        {
          "internalType": "uint256",
          "name": "tokenId",
          "type": "uint256"
        }
      ],
      "name": "transferFrom",
      "outputs": [],
      "stateMutability": "nonpayable",
      "type": "function"
    },
    {
      "inputs": [
        {
          "internalType": "address",
          "name": "newOwner",
          "type": "address"
        }
      ],
      "name": "transferOwnership",
      "outputs": [],
      "stateMutability": "nonpayable",
      "type": "function"
    },
    {
      "inputs": [
        {
          "internalType": "string[]",
          "name": "_candidates",
          "type": "string[]"
        }
      ],
      "name": "addBatch",
      "outputs": [],
      "stateMutability": "nonpayable",
      "type": "function"
    },
    {
      "inputs": [],
      "name": "getTotalMined",
      "outputs": [
        {
          "internalType": "uint256",
          "name": "",
          "type": "uint256"
        }
      ],
      "stateMutability": "view",
      "type": "function"
    },
    {
      "inputs": [],
      "name": "getAllCandidates",
      "outputs": [
        {
          "internalType": "string[]",
          "name": "",
          "type": "string[]"
        }
      ],
      "stateMutability": "view",
      "type": "function"
    },
    {
      "inputs": [],
      "name": "mintRandom",
      "outputs": [],
      "stateMutability": "payable",
      "type": "function"
    }
  ],
  "bytecode": "0x60806040523480156200001157600080fd5b50604051620040a8380380620040a883398181016040528101906200003791906200040d565b838381600090805190602001906200005192919062000185565b5080600190805190602001906200006a92919062000185565b5050506200009f6200008a620000b7640100000000026401000000009004565b620000bf640100000000026401000000009004565b8060098190555081600a819055505050505062000522565b600033905090565b6000600760009054906101000a900473ffffffffffffffffffffffffffffffffffffffff16905081600760006101000a81548173ffffffffffffffffffffffffffffffffffffffff021916908373ffffffffffffffffffffffffffffffffffffffff1602179055508173ffffffffffffffffffffffffffffffffffffffff168173ffffffffffffffffffffffffffffffffffffffff167f8be0079c531659141344cd1fd0a4f28419497f9722a3daafe3b4186f6b6457e060405160405180910390a35050565b8280546200019390620004ec565b90600052602060002090601f016020900481019282620001b7576000855562000203565b82601f10620001d257805160ff191683800117855562000203565b8280016001018555821562000203579182015b8281111562000202578251825591602001919060010190620001e5565b5b50905062000212919062000216565b5090565b5b808211156200023157600081600090555060010162000217565b5090565b6000604051905090565b600080fd5b600080fd5b600080fd5b600080fd5b6000601f19601f8301169050919050565b7f4e487b7100000000000000000000000000000000000000000000000000000000600052604160045260246000fd5b6200029e8262000253565b810181811067ffffffffffffffff82111715620002c057620002bf62000264565b5b80604052505050565b6000620002d562000235565b9050620002e3828262000293565b919050565b600067ffffffffffffffff82111562000306576200030562000264565b5b620003118262000253565b9050602081019050919050565b60005b838110156200033e57808201518184015260208101905062000321565b838111156200034e576000848401525b50505050565b60006200036b6200036584620002e8565b620002c9565b9050828152602081018484840111156200038a57620003896200024e565b5b620003978482856200031e565b509392505050565b600082601f830112620003b757620003b662000249565b5b8151620003c984826020860162000354565b91505092915050565b6000819050919050565b620003e781620003d2565b8114620003f357600080fd5b50565b6000815190506200040781620003dc565b92915050565b600080600080608085870312156200042a57620004296200023f565b5b600085015167ffffffffffffffff8111156200044b576200044a62000244565b5b62000459878288016200039f565b945050602085015167ffffffffffffffff8111156200047d576200047c62000244565b5b6200048b878288016200039f565b93505060406200049e87828801620003f6565b9250506060620004b187828801620003f6565b91505092959194509250565b7f4e487b7100000000000000000000000000000000000000000000000000000000600052602260045260246000fd5b600060028204905060018216806200050557607f821691505b602082108114156200051c576200051b620004bd565b5b50919050565b613b7680620005326000396000f3fe60806040526004361061015d576000357c010000000000000000000000000000000000000000000000000000000090048063715018a6116100d3578063b155d7fa1161008c578063b155d7fa14610479578063b7ec208614610483578063b88d4fde146104ae578063c87b56dd146104d7578063e985e9c514610514578063f2fde38b146105515761015d565b8063715018a61461038d57806378e97925146103a45780638c2d1549146103cf5780638da5cb5b146103fa57806395d89b4114610425578063a22cb465146104505761015d565b80632e6997fe116101255780632e6997fe146102595780633477ee2e1461028457806342842e0e146102c1578063531285b9146102ea5780636352211e1461031357806370a08231146103505761015d565b806301ffc9a71461016257806306fdde031461019f578063081812fc146101ca578063095ea7b31461020757806323b872dd14610230575b600080fd5b34801561016e57600080fd5b5061018960048036038101906101849190612572565b61057a565b60405161019691906125ba565b60405180910390f35b3480156101ab57600080fd5b506101b461065c565b6040516101c1919061266e565b60405180910390f35b3480156101d657600080fd5b506101f160048036038101906101ec91906126c6565b6106ee565b6040516101fe9190612734565b60405180910390f35b34801561021357600080fd5b5061022e6004803603810190610229919061277b565b610773565b005b34801561023c57600080fd5b50610257600480360381019061025291906127bb565b61088b565b005b34801561026557600080fd5b5061026e6108eb565b60405161027b919061291a565b60405180910390f35b34801561029057600080fd5b506102ab60048036038101906102a691906126c6565b6109c4565b6040516102b8919061266e565b60405180910390f35b3480156102cd57600080fd5b506102e860048036038101906102e391906127bb565b610a70565b005b3480156102f657600080fd5b50610311600480360381019061030c91906129a1565b610a90565b005b34801561031f57600080fd5b5061033a600480360381019061033591906126c6565b610bd2565b6040516103479190612734565b60405180910390f35b34801561035c57600080fd5b50610377600480360381019061037291906129ee565b610c84565b6040516103849190612a2a565b60405180910390f35b34801561039957600080fd5b506103a2610d3c565b005b3480156103b057600080fd5b506103b9610dc4565b6040516103c69190612a2a565b60405180910390f35b3480156103db57600080fd5b506103e4610dca565b6040516103f19190612a2a565b60405180910390f35b34801561040657600080fd5b5061040f610ddb565b60405161041c9190612734565b60405180910390f35b34801561043157600080fd5b5061043a610e05565b604051610447919061266e565b60405180910390f35b34801561045c57600080fd5b5061047760048036038101906104729190612a71565b610e97565b005b610481610ead565b005b34801561048f57600080fd5b50610498611115565b6040516104a59190612a2a565b60405180910390f35b3480156104ba57600080fd5b506104d560048036038101906104d09190612be1565b61111b565b005b3480156104e357600080fd5b506104fe60048036038101906104f991906126c6565b61117d565b60405161050b919061266e565b60405180910390f35b34801561052057600080fd5b5061053b60048036038101906105369190612c64565b6112cf565b60405161054891906125ba565b60405180910390f35b34801561055d57600080fd5b50610578600480360381019061057391906129ee565b611363565b005b60007f80ac58cd000000000000000000000000000000000000000000000000000000007bffffffffffffffffffffffffffffffffffffffffffffffffffffffff1916827bffffffffffffffffffffffffffffffffffffffffffffffffffffffff1916148061064557507f5b5e139f000000000000000000000000000000000000000000000000000000007bffffffffffffffffffffffffffffffffffffffffffffffffffffffff1916827bffffffffffffffffffffffffffffffffffffffffffffffffffffffff1916145b8061065557506106548261145b565b5b9050919050565b60606000805461066b90612cd3565b80601f016020809104026020016040519081016040528092919081815260200182805461069790612cd3565b80156106e45780601f106106b9576101008083540402835291602001916106e4565b820191906000526020600020905b8154815290600101906020018083116106c757829003601f168201915b5050505050905090565b60006106f9826114c5565b610738576040517f08c379a000000000000000000000000000000000000000000000000000000000815260040161072f90612d77565b60405180910390fd5b6004600083815260200190815260200160002060009054906101000a900473ffffffffffffffffffffffffffffffffffffffff169050919050565b600061077e82610bd2565b90508073ffffffffffffffffffffffffffffffffffffffff168373ffffffffffffffffffffffffffffffffffffffff1614156107ef576040517f08c379a00000000000000000000000000000000000000000000000000000000081526004016107e690612e09565b60405180910390fd5b8073ffffffffffffffffffffffffffffffffffffffff1661080e611531565b73ffffffffffffffffffffffffffffffffffffffff16148061083d575061083c81610837611531565b6112cf565b5b61087c576040517f08c379a000000000000000000000000000000000000000000000000000000000815260040161087390612e9b565b60405180910390fd5b6108868383611539565b505050565b61089c610896611531565b826115f2565b6108db576040517f08c379a00000000000000000000000000000000000000000000000000000000081526004016108d290612f2d565b60405180910390fd5b6108e68383836116d0565b505050565b6060600b805480602002602001604051908101604052809291908181526020016000905b828210156109bb57838290600052602060002001805461092e90612cd3565b80601f016020809104026020016040519081016040528092919081815260200182805461095a90612cd3565b80156109a75780601f1061097c576101008083540402835291602001916109a7565b820191906000526020600020905b81548152906001019060200180831161098a57829003601f168201915b50505050508152602001906001019061090f565b50505050905090565b600b81815481106109d457600080fd5b9060005260206000200160009150905080546109ef90612cd3565b80601f0160208091040260200160405190810160405280929190818152602001828054610a1b90612cd3565b8015610a685780601f10610a3d57610100808354040283529160200191610a68565b820191906000526020600020905b815481529060010190602001808311610a4b57829003601f168201915b505050505081565b610a8b8383836040518060200160405280600081525061111b565b505050565b610a98611531565b73ffffffffffffffffffffffffffffffffffffffff16610ab6610ddb565b73ffffffffffffffffffffffffffffffffffffffff1614610b0c576040517f08c379a0000000000000000000000000000000000000000000000000000000008152600401610b0390612f99565b60405180910390fd5b60095480421115610b49576040517fecdd1c2900000000000000000000000000000000000000000000000000000000815260040160405180910390fd5b60005b83839050811015610bcc57600b848483818110610b6c57610b6b612fb9565b5b9050602002810190610b7e9190612ff7565b90918060018154018082558091505060019003906000526020600020016000909192909192909192909192509190610bb7929190612310565b50600181610bc59190613089565b9050610b4c565b50505050565b6000806002600084815260200190815260200160002060009054906101000a900473ffffffffffffffffffffffffffffffffffffffff169050600073ffffffffffffffffffffffffffffffffffffffff168173ffffffffffffffffffffffffffffffffffffffff161415610c7b576040517f08c379a0000000000000000000000000000000000000000000000000000000008152600401610c7290613151565b60405180910390fd5b80915050919050565b60008073ffffffffffffffffffffffffffffffffffffffff168273ffffffffffffffffffffffffffffffffffffffff161415610cf5576040517f08c379a0000000000000000000000000000000000000000000000000000000008152600401610cec906131e3565b60405180910390fd5b600360008373ffffffffffffffffffffffffffffffffffffffff1673ffffffffffffffffffffffffffffffffffffffff168152602001908152602001600020549050919050565b610d44611531565b73ffffffffffffffffffffffffffffffffffffffff16610d62610ddb565b73ffffffffffffffffffffffffffffffffffffffff1614610db8576040517f08c379a0000000000000000000000000000000000000000000000000000000008152600401610daf90612f99565b60405180910390fd5b610dc26000611937565b565b60095481565b6000610dd660086119fd565b905090565b6000600760009054906101000a900473ffffffffffffffffffffffffffffffffffffffff16905090565b606060018054610e1490612cd3565b80601f0160208091040260200160405190810160405280929190818152602001828054610e4090612cd3565b8015610e8d5780601f10610e6257610100808354040283529160200191610e8d565b820191906000526020600020905b815481529060010190602001808311610e7057829003601f168201915b5050505050905090565b610ea9610ea2611531565b8383611a0b565b5050565b600a54341015610ef2576040517f08c379a0000000000000000000000000000000000000000000000000000000008152600401610ee99061324f565b60405180910390fd5b6000610efe60086119fd565b90506000600b805490501415610f40576040517f3db2a12a00000000000000000000000000000000000000000000000000000000815260040160405180910390fd5b6000610f4a611b78565b90506000600b8054905082610f5f919061329e565b90506000600b8281548110610f7757610f76612fb9565b5b906000526020600020018054610f8c90612cd3565b80601f0160208091040260200160405190810160405280929190818152602001828054610fb890612cd3565b80156110055780601f10610fda57610100808354040283529160200191611005565b820191906000526020600020905b815481529060010190602001808311610fe857829003601f168201915b50505050509050600b6001600b8054905061102091906132cf565b8154811061103157611030612fb9565b5b90600052602060002001600b838154811061104f5761104e612fb9565b5b9060005260206000200190805461106590612cd3565b611070929190612396565b50600b80548061108357611082613303565b5b60019003818190600052602060002001600061109f9190612423565b90556110ab3385611bac565b6110b58482611bca565b6110bf6008611c3e565b3373ffffffffffffffffffffffffffffffffffffffff167f983d37d8751fcfa80e95e5fe2c0f46fb7b541b280961dc7ac00aa2670e2edd878583604051611107929190613332565b60405180910390a250505050565b600a5481565b61112c611126611531565b836115f2565b61116b576040517f08c379a000000000000000000000000000000000000000000000000000000000815260040161116290612f2d565b60405180910390fd5b61117784848484611c54565b50505050565b6060611188826114c5565b6111c7576040517f08c379a00000000000000000000000000000000000000000000000000000000081526004016111be906133d4565b60405180910390fd5b60006006600084815260200190815260200160002080546111e790612cd3565b80601f016020809104026020016040519081016040528092919081815260200182805461121390612cd3565b80156112605780601f1061123557610100808354040283529160200191611260565b820191906000526020600020905b81548152906001019060200180831161124357829003601f168201915b505050505090506000611271611cb0565b90506000815114156112875781925050506112ca565b6000825111156112bc5780826040516020016112a4929190613430565b604051602081830303815290604052925050506112ca565b6112c584611cc7565b925050505b919050565b6000600560008473ffffffffffffffffffffffffffffffffffffffff1673ffffffffffffffffffffffffffffffffffffffff16815260200190815260200160002060008373ffffffffffffffffffffffffffffffffffffffff1673ffffffffffffffffffffffffffffffffffffffff16815260200190815260200160002060009054906101000a900460ff16905092915050565b61136b611531565b73ffffffffffffffffffffffffffffffffffffffff16611389610ddb565b73ffffffffffffffffffffffffffffffffffffffff16146113df576040517f08c379a00000000000000000000000000000000000000000000000000000000081526004016113d690612f99565b60405180910390fd5b600073ffffffffffffffffffffffffffffffffffffffff168173ffffffffffffffffffffffffffffffffffffffff16141561144f576040517f08c379a0000000000000000000000000000000000000000000000000000000008152600401611446906134c6565b60405180910390fd5b61145881611937565b50565b60007f01ffc9a7000000000000000000000000000000000000000000000000000000007bffffffffffffffffffffffffffffffffffffffffffffffffffffffff1916827bffffffffffffffffffffffffffffffffffffffffffffffffffffffff1916149050919050565b60008073ffffffffffffffffffffffffffffffffffffffff166002600084815260200190815260200160002060009054906101000a900473ffffffffffffffffffffffffffffffffffffffff1673ffffffffffffffffffffffffffffffffffffffff1614159050919050565b600033905090565b816004600083815260200190815260200160002060006101000a81548173ffffffffffffffffffffffffffffffffffffffff021916908373ffffffffffffffffffffffffffffffffffffffff160217905550808273ffffffffffffffffffffffffffffffffffffffff166115ac83610bd2565b73ffffffffffffffffffffffffffffffffffffffff167f8c5be1e5ebec7d5bd14f71427d1e84f3dd0314c0f7b2291e5b200ac8c7c3b92560405160405180910390a45050565b60006115fd826114c5565b61163c576040517f08c379a000000000000000000000000000000000000000000000000000000000815260040161163390613558565b60405180910390fd5b600061164783610bd2565b90508073ffffffffffffffffffffffffffffffffffffffff168473ffffffffffffffffffffffffffffffffffffffff1614806116b657508373ffffffffffffffffffffffffffffffffffffffff1661169e846106ee565b73ffffffffffffffffffffffffffffffffffffffff16145b806116c757506116c681856112cf565b5b91505092915050565b8273ffffffffffffffffffffffffffffffffffffffff166116f082610bd2565b73ffffffffffffffffffffffffffffffffffffffff1614611746576040517f08c379a000000000000000000000000000000000000000000000000000000000815260040161173d906135ea565b60405180910390fd5b600073ffffffffffffffffffffffffffffffffffffffff168273ffffffffffffffffffffffffffffffffffffffff1614156117b6576040517f08c379a00000000000000000000000000000000000000000000000000000000081526004016117ad9061367c565b60405180910390fd5b6117c1838383611d6e565b6117cc600082611539565b6001600360008573ffffffffffffffffffffffffffffffffffffffff1673ffffffffffffffffffffffffffffffffffffffff168152602001908152602001600020600082825461181c91906132cf565b925050819055506001600360008473ffffffffffffffffffffffffffffffffffffffff1673ffffffffffffffffffffffffffffffffffffffff16815260200190815260200160002060008282546118739190613089565b92505081905550816002600083815260200190815260200160002060006101000a81548173ffffffffffffffffffffffffffffffffffffffff021916908373ffffffffffffffffffffffffffffffffffffffff160217905550808273ffffffffffffffffffffffffffffffffffffffff168473ffffffffffffffffffffffffffffffffffffffff167fddf252ad1be2c89b69c2b068fc378daa952ba7f163c4a11628f55a4df523b3ef60405160405180910390a4611932838383611d73565b505050565b6000600760009054906101000a900473ffffffffffffffffffffffffffffffffffffffff16905081600760006101000a81548173ffffffffffffffffffffffffffffffffffffffff021916908373ffffffffffffffffffffffffffffffffffffffff1602179055508173ffffffffffffffffffffffffffffffffffffffff168173ffffffffffffffffffffffffffffffffffffffff167f8be0079c531659141344cd1fd0a4f28419497f9722a3daafe3b4186f6b6457e060405160405180910390a35050565b600081600001549050919050565b8173ffffffffffffffffffffffffffffffffffffffff168373ffffffffffffffffffffffffffffffffffffffff161415611a7a576040517f08c379a0000000000000000000000000000000000000000000000000000000008152600401611a71906136e8565b60405180910390fd5b80600560008573ffffffffffffffffffffffffffffffffffffffff1673ffffffffffffffffffffffffffffffffffffffff16815260200190815260200160002060008473ffffffffffffffffffffffffffffffffffffffff1673ffffffffffffffffffffffffffffffffffffffff16815260200190815260200160002060006101000a81548160ff0219169083151502179055508173ffffffffffffffffffffffffffffffffffffffff168373ffffffffffffffffffffffffffffffffffffffff167f17307eab39ab6107e8899845ad3d59bd9653f200f220920489ca2b5937696c3183604051611b6b91906125ba565b60405180910390a3505050565b60004442604051602001611b8d929190613729565b6040516020818303038152906040528051906020012060019004905090565b611bc6828260405180602001604052806000815250611d78565b5050565b611bd3826114c5565b611c12576040517f08c379a0000000000000000000000000000000000000000000000000000000008152600401611c09906137c7565b60405180910390fd5b80600660008481526020019081526020016000209080519060200190611c39929190612463565b505050565b6001816000016000828254019250508190555050565b611c5f8484846116d0565b611c6b84848484611dd3565b611caa576040517f08c379a0000000000000000000000000000000000000000000000000000000008152600401611ca190613859565b60405180910390fd5b50505050565b606060405180602001604052806000815250905090565b6060611cd2826114c5565b611d11576040517f08c379a0000000000000000000000000000000000000000000000000000000008152600401611d08906138eb565b60405180910390fd5b6000611d1b611cb0565b90506000815111611d3b5760405180602001604052806000815250611d66565b80611d4584611f93565b604051602001611d56929190613430565b6040516020818303038152906040525b915050919050565b505050565b505050565b611d828383612113565b611d8f6000848484611dd3565b611dce576040517f08c379a0000000000000000000000000000000000000000000000000000000008152600401611dc590613859565b60405180910390fd5b505050565b6000611df48473ffffffffffffffffffffffffffffffffffffffff166122ed565b15611f86578373ffffffffffffffffffffffffffffffffffffffff1663150b7a02611e1d611531565b8786866040518563ffffffff167c0100000000000000000000000000000000000000000000000000000000028152600401611e5b9493929190613960565b6020604051808303816000875af1925050508015611e9757506040513d601f19601f82011682018060405250810190611e9491906139c1565b60015b611f1a573d8060008114611ec7576040519150601f19603f3d011682016040523d82523d6000602084013e611ecc565b606091505b50600081511415611f12576040517f08c379a0000000000000000000000000000000000000000000000000000000008152600401611f0990613859565b60405180910390fd5b805181602001fd5b63150b7a027c0100000000000000000000000000000000000000000000000000000000027bffffffffffffffffffffffffffffffffffffffffffffffffffffffff1916817bffffffffffffffffffffffffffffffffffffffffffffffffffffffff191614915050611f8b565b600190505b949350505050565b60606000821415611fdb576040518060400160405280600181526020017f3000000000000000000000000000000000000000000000000000000000000000815250905061210e565b600082905060005b6000821461200d578080611ff6906139ee565b915050600a826120069190613a37565b9150611fe3565b60008167ffffffffffffffff81111561202957612028612ab6565b5b6040519080825280601f01601f19166020018201604052801561205b5781602001600182028036833780820191505090505b5090505b600085146121075760018261207491906132cf565b9150600a85612083919061329e565b603061208f9190613089565b7f0100000000000000000000000000000000000000000000000000000000000000028183815181106120c4576120c3612fb9565b5b60200101907effffffffffffffffffffffffffffffffffffffffffffffffffffffffffffff1916908160001a905350600a856121009190613a37565b945061205f565b8093505050505b919050565b600073ffffffffffffffffffffffffffffffffffffffff168273ffffffffffffffffffffffffffffffffffffffff161415612183576040517f08c379a000000000000000000000000000000000000000000000000000000000815260040161217a90613ab4565b60405180910390fd5b61218c816114c5565b156121cc576040517f08c379a00000000000000000000000000000000000000000000000000000000081526004016121c390613b20565b60405180910390fd5b6121d860008383611d6e565b6001600360008473ffffffffffffffffffffffffffffffffffffffff1673ffffffffffffffffffffffffffffffffffffffff16815260200190815260200160002060008282546122289190613089565b92505081905550816002600083815260200190815260200160002060006101000a81548173ffffffffffffffffffffffffffffffffffffffff021916908373ffffffffffffffffffffffffffffffffffffffff160217905550808273ffffffffffffffffffffffffffffffffffffffff16600073ffffffffffffffffffffffffffffffffffffffff167fddf252ad1be2c89b69c2b068fc378daa952ba7f163c4a11628f55a4df523b3ef60405160405180910390a46122e960008383611d73565b5050565b6000808273ffffffffffffffffffffffffffffffffffffffff163b119050919050565b82805461231c90612cd3565b90600052602060002090601f01602090048101928261233e5760008555612385565b82601f1061235757803560ff1916838001178555612385565b82800160010185558215612385579182015b82811115612384578235825591602001919060010190612369565b5b50905061239291906124e9565b5090565b8280546123a290612cd3565b90600052602060002090601f0160209004810192826123c45760008555612412565b82601f106123d55780548555612412565b8280016001018555821561241257600052602060002091601f016020900482015b828111156124115782548255916001019190600101906123f6565b5b50905061241f91906124e9565b5090565b50805461242f90612cd3565b6000825580601f106124415750612460565b601f01602090049060005260206000209081019061245f91906124e9565b5b50565b82805461246f90612cd3565b90600052602060002090601f01602090048101928261249157600085556124d8565b82601f106124aa57805160ff19168380011785556124d8565b828001600101855582156124d8579182015b828111156124d75782518255916020019190600101906124bc565b5b5090506124e591906124e9565b5090565b5b808211156125025760008160009055506001016124ea565b5090565b6000604051905090565b600080fd5b600080fd5b60007fffffffff0000000000000000000000000000000000000000000000000000000082169050919050565b61254f8161251a565b811461255a57600080fd5b50565b60008135905061256c81612546565b92915050565b60006020828403121561258857612587612510565b5b60006125968482850161255d565b91505092915050565b60008115159050919050565b6125b48161259f565b82525050565b60006020820190506125cf60008301846125ab565b92915050565b600081519050919050565b600082825260208201905092915050565b60005b8381101561260f5780820151818401526020810190506125f4565b8381111561261e576000848401525b50505050565b6000601f19601f8301169050919050565b6000612640826125d5565b61264a81856125e0565b935061265a8185602086016125f1565b61266381612624565b840191505092915050565b600060208201905081810360008301526126888184612635565b905092915050565b6000819050919050565b6126a381612690565b81146126ae57600080fd5b50565b6000813590506126c08161269a565b92915050565b6000602082840312156126dc576126db612510565b5b60006126ea848285016126b1565b91505092915050565b600073ffffffffffffffffffffffffffffffffffffffff82169050919050565b600061271e826126f3565b9050919050565b61272e81612713565b82525050565b60006020820190506127496000830184612725565b92915050565b61275881612713565b811461276357600080fd5b50565b6000813590506127758161274f565b92915050565b6000806040838503121561279257612791612510565b5b60006127a085828601612766565b92505060206127b1858286016126b1565b9150509250929050565b6000806000606084860312156127d4576127d3612510565b5b60006127e286828701612766565b93505060206127f386828701612766565b9250506040612804868287016126b1565b9150509250925092565b600081519050919050565b600082825260208201905092915050565b6000819050602082019050919050565b600082825260208201905092915050565b6000612856826125d5565b612860818561283a565b93506128708185602086016125f1565b61287981612624565b840191505092915050565b6000612890838361284b565b905092915050565b6000602082019050919050565b60006128b08261280e565b6128ba8185612819565b9350836020820285016128cc8561282a565b8060005b8581101561290857848403895281516128e98582612884565b94506128f483612898565b925060208a019950506001810190506128d0565b50829750879550505050505092915050565b6000602082019050818103600083015261293481846128a5565b905092915050565b600080fd5b600080fd5b600080fd5b60008083601f8401126129615761296061293c565b5b8235905067ffffffffffffffff81111561297e5761297d612941565b5b60208301915083602082028301111561299a57612999612946565b5b9250929050565b600080602083850312156129b8576129b7612510565b5b600083013567ffffffffffffffff8111156129d6576129d5612515565b5b6129e28582860161294b565b92509250509250929050565b600060208284031215612a0457612a03612510565b5b6000612a1284828501612766565b91505092915050565b612a2481612690565b82525050565b6000602082019050612a3f6000830184612a1b565b92915050565b612a4e8161259f565b8114612a5957600080fd5b50565b600081359050612a6b81612a45565b92915050565b60008060408385031215612a8857612a87612510565b5b6000612a9685828601612766565b9250506020612aa785828601612a5c565b9150509250929050565b600080fd5b7f4e487b7100000000000000000000000000000000000000000000000000000000600052604160045260246000fd5b612aee82612624565b810181811067ffffffffffffffff82111715612b0d57612b0c612ab6565b5b80604052505050565b6000612b20612506565b9050612b2c8282612ae5565b919050565b600067ffffffffffffffff821115612b4c57612b4b612ab6565b5b612b5582612624565b9050602081019050919050565b82818337600083830152505050565b6000612b84612b7f84612b31565b612b16565b905082815260208101848484011115612ba057612b9f612ab1565b5b612bab848285612b62565b509392505050565b600082601f830112612bc857612bc761293c565b5b8135612bd8848260208601612b71565b91505092915050565b60008060008060808587031215612bfb57612bfa612510565b5b6000612c0987828801612766565b9450506020612c1a87828801612766565b9350506040612c2b878288016126b1565b925050606085013567ffffffffffffffff811115612c4c57612c4b612515565b5b612c5887828801612bb3565b91505092959194509250565b60008060408385031215612c7b57612c7a612510565b5b6000612c8985828601612766565b9250506020612c9a85828601612766565b9150509250929050565b7f4e487b7100000000000000000000000000000000000000000000000000000000600052602260045260246000fd5b60006002820490506001821680612ceb57607f821691505b60208210811415612cff57612cfe612ca4565b5b50919050565b7f4552433732313a20617070726f76656420717565727920666f72206e6f6e657860008201527f697374656e7420746f6b656e0000000000000000000000000000000000000000602082015250565b6000612d61602c836125e0565b9150612d6c82612d05565b604082019050919050565b60006020820190508181036000830152612d9081612d54565b9050919050565b7f4552433732313a20617070726f76616c20746f2063757272656e74206f776e6560008201527f7200000000000000000000000000000000000000000000000000000000000000602082015250565b6000612df36021836125e0565b9150612dfe82612d97565b604082019050919050565b60006020820190508181036000830152612e2281612de6565b9050919050565b7f4552433732313a20617070726f76652063616c6c6572206973206e6f74206f7760008201527f6e6572206e6f7220617070726f76656420666f7220616c6c0000000000000000602082015250565b6000612e856038836125e0565b9150612e9082612e29565b604082019050919050565b60006020820190508181036000830152612eb481612e78565b9050919050565b7f4552433732313a207472616e736665722063616c6c6572206973206e6f74206f60008201527f776e6572206e6f7220617070726f766564000000000000000000000000000000602082015250565b6000612f176031836125e0565b9150612f2282612ebb565b604082019050919050565b60006020820190508181036000830152612f4681612f0a565b9050919050565b7f4f776e61626c653a2063616c6c6572206973206e6f7420746865206f776e6572600082015250565b6000612f836020836125e0565b9150612f8e82612f4d565b602082019050919050565b60006020820190508181036000830152612fb281612f76565b9050919050565b7f4e487b7100000000000000000000000000000000000000000000000000000000600052603260045260246000fd5b600080fd5b600080fd5b600080fd5b6000808335600160200384360303811261301457613013612fe8565b5b80840192508235915067ffffffffffffffff82111561303657613035612fed565b5b60208301925060018202360383131561305257613051612ff2565b5b509250929050565b7f4e487b7100000000000000000000000000000000000000000000000000000000600052601160045260246000fd5b600061309482612690565b915061309f83612690565b9250827fffffffffffffffffffffffffffffffffffffffffffffffffffffffffffffffff038211156130d4576130d361305a565b5b828201905092915050565b7f4552433732313a206f776e657220717565727920666f72206e6f6e657869737460008201527f656e7420746f6b656e0000000000000000000000000000000000000000000000602082015250565b600061313b6029836125e0565b9150613146826130df565b604082019050919050565b6000602082019050818103600083015261316a8161312e565b9050919050565b7f4552433732313a2062616c616e636520717565727920666f7220746865207a6560008201527f726f206164647265737300000000000000000000000000000000000000000000602082015250565b60006131cd602a836125e0565b91506131d882613171565b604082019050919050565b600060208201905081810360008301526131fc816131c0565b9050919050565b7f496e73756666696369656e742070726963650000000000000000000000000000600082015250565b60006132396012836125e0565b915061324482613203565b602082019050919050565b600060208201905081810360008301526132688161322c565b9050919050565b7f4e487b7100000000000000000000000000000000000000000000000000000000600052601260045260246000fd5b60006132a982612690565b91506132b483612690565b9250826132c4576132c361326f565b5b828206905092915050565b60006132da82612690565b91506132e583612690565b9250828210156132f8576132f761305a565b5b828203905092915050565b7f4e487b7100000000000000000000000000000000000000000000000000000000600052603160045260246000fd5b60006040820190506133476000830185612a1b565b81810360208301526133598184612635565b90509392505050565b7f45524337323155524953746f726167653a2055524920717565727920666f722060008201527f6e6f6e6578697374656e7420746f6b656e000000000000000000000000000000602082015250565b60006133be6031836125e0565b91506133c982613362565b604082019050919050565b600060208201905081810360008301526133ed816133b1565b9050919050565b600081905092915050565b600061340a826125d5565b61341481856133f4565b93506134248185602086016125f1565b80840191505092915050565b600061343c82856133ff565b915061344882846133ff565b91508190509392505050565b7f4f776e61626c653a206e6577206f776e657220697320746865207a65726f206160008201527f6464726573730000000000000000000000000000000000000000000000000000602082015250565b60006134b06026836125e0565b91506134bb82613454565b604082019050919050565b600060208201905081810360008301526134df816134a3565b9050919050565b7f4552433732313a206f70657261746f7220717565727920666f72206e6f6e657860008201527f697374656e7420746f6b656e0000000000000000000000000000000000000000602082015250565b6000613542602c836125e0565b915061354d826134e6565b604082019050919050565b6000602082019050818103600083015261357181613535565b9050919050565b7f4552433732313a207472616e736665722066726f6d20696e636f72726563742060008201527f6f776e6572000000000000000000000000000000000000000000000000000000602082015250565b60006135d46025836125e0565b91506135df82613578565b604082019050919050565b60006020820190508181036000830152613603816135c7565b9050919050565b7f4552433732313a207472616e7366657220746f20746865207a65726f2061646460008201527f7265737300000000000000000000000000000000000000000000000000000000602082015250565b60006136666024836125e0565b91506136718261360a565b604082019050919050565b6000602082019050818103600083015261369581613659565b9050919050565b7f4552433732313a20617070726f766520746f2063616c6c657200000000000000600082015250565b60006136d26019836125e0565b91506136dd8261369c565b602082019050919050565b60006020820190508181036000830152613701816136c5565b9050919050565b6000819050919050565b61372361371e82612690565b613708565b82525050565b60006137358285613712565b6020820191506137458284613712565b6020820191508190509392505050565b7f45524337323155524953746f726167653a2055524920736574206f66206e6f6e60008201527f6578697374656e7420746f6b656e000000000000000000000000000000000000602082015250565b60006137b1602e836125e0565b91506137bc82613755565b604082019050919050565b600060208201905081810360008301526137e0816137a4565b9050919050565b7f4552433732313a207472616e7366657220746f206e6f6e20455243373231526560008201527f63656976657220696d706c656d656e7465720000000000000000000000000000602082015250565b60006138436032836125e0565b915061384e826137e7565b604082019050919050565b6000602082019050818103600083015261387281613836565b9050919050565b7f4552433732314d657461646174613a2055524920717565727920666f72206e6f60008201527f6e6578697374656e7420746f6b656e0000000000000000000000000000000000602082015250565b60006138d5602f836125e0565b91506138e082613879565b604082019050919050565b60006020820190508181036000830152613904816138c8565b9050919050565b600081519050919050565b600082825260208201905092915050565b60006139328261390b565b61393c8185613916565b935061394c8185602086016125f1565b61395581612624565b840191505092915050565b60006080820190506139756000830187612725565b6139826020830186612725565b61398f6040830185612a1b565b81810360608301526139a18184613927565b905095945050505050565b6000815190506139bb81612546565b92915050565b6000602082840312156139d7576139d6612510565b5b60006139e5848285016139ac565b91505092915050565b60006139f982612690565b91507fffffffffffffffffffffffffffffffffffffffffffffffffffffffffffffffff821415613a2c57613a2b61305a565b5b600182019050919050565b6000613a4282612690565b9150613a4d83612690565b925082613a5d57613a5c61326f565b5b828204905092915050565b7f4552433732313a206d696e7420746f20746865207a65726f2061646472657373600082015250565b6000613a9e6020836125e0565b9150613aa982613a68565b602082019050919050565b60006020820190508181036000830152613acd81613a91565b9050919050565b7f4552433732313a20746f6b656e20616c7265616479206d696e74656400000000600082015250565b6000613b0a601c836125e0565b9150613b1582613ad4565b602082019050919050565b60006020820190508181036000830152613b3981613afd565b905091905056fea26469706673582212206bcf38a44a3d4705935d0c633f605356144db8057e1e34d3b9568a01ce93af0f64736f6c634300080b0033",
  "immutableReferences": {},
  "source": "pragma solidity ^0.8.0;\r\n\r\nimport \"@openzeppelin/contracts/utils/Strings.sol\";\r\nimport \"@openzeppelin/contracts/token/ERC721/extensions/ERC721URIStorage.sol\";\r\nimport \"@openzeppelin/contracts/access/Ownable.sol\";\r\nimport \"@openzeppelin/contracts/utils/Counters.sol\";\r\nimport \"@openzeppelin/contracts/utils/math/SafeMath.sol\";\r\n\r\ncontract ERC721Minter is ERC721URIStorage, Ownable {\r\n    using Counters for Counters.Counter;\r\n    using SafeMath for uint256;\r\n    Counters.Counter private _tokenIds;\r\n\r\n    uint256 public startTime;\r\n    uint256 public priceWei;\r\n\r\n    string[] public candidates;\r\n\r\n    error Unauthorized();\r\n    error TooEarly();\r\n    error TooLate();\r\n    error Empty();\r\n    event Mint(uint256 tokenId, string url, address indexed sender);\r\n\r\n    constructor(\r\n        string memory _name,\r\n        string memory _symbol,\r\n        uint256 _priceWei,\r\n        uint256 _startTime\r\n    ) ERC721(_name, _symbol) {\r\n        startTime = _startTime;\r\n        priceWei = _priceWei;\r\n    }\r\n\r\n    modifier onlyAfter(uint256 _time) {\r\n        if (block.timestamp < _time) revert TooEarly();\r\n        _;\r\n    }\r\n\r\n    modifier onlyBefore(uint256 _time) {\r\n        if (block.timestamp > _time) revert TooLate();\r\n        _;\r\n    }\r\n\r\n    function addBatch(string[] calldata _candidates)\r\n        public\r\n        onlyOwner\r\n        onlyBefore(startTime)\r\n    {\r\n        for (uint256 i = 0; i < _candidates.length; i += 1) {\r\n            candidates.push(_candidates[i]);\r\n        }\r\n    }\r\n\r\n    function random() private view returns (uint256) {\r\n        return\r\n            uint256(\r\n                keccak256(abi.encodePacked(block.difficulty, block.timestamp))\r\n            );\r\n    }\r\n\r\n    function getTotalMined() public view returns (uint256) {\r\n        return _tokenIds.current();\r\n    }\r\n\r\n    function getAllCandidates() public view returns (string[] memory) {\r\n        return candidates;\r\n    }\r\n\r\n    function mintRandom() public payable {\r\n        require(msg.value >= priceWei, \"Insufficient price\");\r\n\r\n        uint256 newItemId = _tokenIds.current();\r\n        if (candidates.length == 0) {\r\n            revert Empty();\r\n        }\r\n        uint256 rand = random();\r\n        uint256 idx = rand % candidates.length;\r\n        string memory element = candidates[idx];\r\n        candidates[idx] = candidates[candidates.length - 1];\r\n        candidates.pop();\r\n\r\n        _safeMint(msg.sender, newItemId);\r\n        _setTokenURI(newItemId, element);\r\n\r\n        _tokenIds.increment();\r\n        emit Mint(newItemId, element, msg.sender);\r\n    }\r\n}\r\n",
  "sourcePath": "C:\\Users\\kumquatexpress\\projects\\retool\\contour\\contracts\\ERC721Minter.sol",
  "compiler": {
    "name": "solc",
    "version": "0.8.11+commit.d7f03943.Emscripten.clang"
  },
  "schemaVersion": "3.4.4",
  "updatedAt": "2022-03-09T22:06:24.205Z",
  "devdoc": {
    "kind": "dev",
    "methods": {
      "approve(address,uint256)": {
        "details": "See {IERC721-approve}."
      },
      "balanceOf(address)": {
        "details": "See {IERC721-balanceOf}."
      },
      "getApproved(uint256)": {
        "details": "See {IERC721-getApproved}."
      },
      "isApprovedForAll(address,address)": {
        "details": "See {IERC721-isApprovedForAll}."
      },
      "name()": {
        "details": "See {IERC721Metadata-name}."
      },
      "owner()": {
        "details": "Returns the address of the current owner."
      },
      "ownerOf(uint256)": {
        "details": "See {IERC721-ownerOf}."
      },
      "renounceOwnership()": {
        "details": "Leaves the contract without owner. It will not be possible to call `onlyOwner` functions anymore. Can only be called by the current owner. NOTE: Renouncing ownership will leave the contract without an owner, thereby removing any functionality that is only available to the owner."
      },
      "safeTransferFrom(address,address,uint256)": {
        "details": "See {IERC721-safeTransferFrom}."
      },
      "safeTransferFrom(address,address,uint256,bytes)": {
        "details": "See {IERC721-safeTransferFrom}."
      },
      "setApprovalForAll(address,bool)": {
        "details": "See {IERC721-setApprovalForAll}."
      },
      "supportsInterface(bytes4)": {
        "details": "See {IERC165-supportsInterface}."
      },
      "symbol()": {
        "details": "See {IERC721Metadata-symbol}."
      },
      "tokenURI(uint256)": {
        "details": "See {IERC721Metadata-tokenURI}."
      },
      "transferFrom(address,address,uint256)": {
        "details": "See {IERC721-transferFrom}."
      },
      "transferOwnership(address)": {
        "details": "Transfers ownership of the contract to a new account (`newOwner`). Can only be called by the current owner."
      }
    },
    "version": 1
  },
  "userdoc": {
    "kind": "user",
    "methods": {},
    "version": 1
  },
  "db": {
    "callBytecode": {
      "id": "0x147cef4bdbf9784c30f7298d27ef96444791297e6fab77772f8b298f344a65ab"
    },
    "createBytecode": {
      "id": "0x417275b5ed9a3925b602fcc68105d7ebaade9e34f0d9d3622b5cbf2ad02e6d28"
    },
    "contract": {
      "id": "0xc838ac3f64215999db0253d728cbf2dbf6fc83bbe92b85c97126d20ede529b40"
    }
  }
}